:020000040800F2
:10000000005000203D210008111F0008171F0008A4
:100010001D1F0008231F0008291F00080000000002
:100020000000000000000000000000002F1F00087A
:100030003B1F000800000000471F0008531F000876
:1000400085210008852100088521000885210008F8
:1000500085210008852100088521000885210008E8
:1000600085210008852100088521000885210008D8
:1000700085210008852100088521000885210008C8
:100080008521000885210008611F000885210008DE
:1000900085210008852100088521000885210008A8
:1000A0008521000885210008852100088521000898
:1000B000751F00088521000885210008852100089A
:1000C0008521000885210008852100088521000878
:1000D0008521000885210008891F00089D1F000850
:1000E0008521000885210008852100080000000006
:1000F0000000000000000000000000000000000000
:0C01000000000000000000005FF808F1A3
:1001100010B5054C237833B9044B13B10448AFF341
:1001200000800123237010BDF001002000000000BA
:10013000709F000808B5034B1BB103490348AFF398
:10014000008008BD00000000F4010020709F00083E
:1001500010F8012B11F8013B012A28BF9A42F7D071
:10016000D01A7047034613F8012B002AFBD1181A46
:100170000138704781F0004102E000BF83F0004386
:1001800030B54FEA41044FEA430594EA050F08BF32
:1001900090EA020F1FBF54EA000C55EA020C7FEAF6
:1001A000645C7FEA655C00F0E2804FEA5454D4EB73
:1001B0005555B8BF6D420CDD2C4480EA020281EA3D
:1001C000030382EA000083EA010180EA020281EA75
:1001D0000303362D88BF30BD11F0004F4FEA0131C7
:1001E0004FF4801C4CEA113102D0404261EB4101D6
:1001F00013F0004F4FEA03334CEA133302D052425C
:1002000063EB430394EA050F00F0A780A4F1010417
:10021000D5F1200E0DDB02FA0EFC22FA05F2801851
:1002200041F1000103FA0EF2801843FA05F3594137
:100230000EE0A5F120050EF1200E012A03FA0EFCB6
:1002400028BF4CF0020C43FA05F3C01851EBE371E0
:1002500001F0004507D54FF0000EDCF1000C7EEBFD
:1002600000006EEB0101B1F5801F1BD3B1F5001F3B
:100270000CD349085FEA30004FEA3C0C04F101045A
:100280004FEA445212F5800F80F09A80BCF1004F83
:1002900008BF5FEA500C50F1000041EB045141EA05
:1002A000050130BD5FEA4C0C404141EB0101013CCE
:1002B00028BFB1F5801FE9D291F0000F04BF0146BD
:1002C0000020B1FA81F308BF2033A3F10B03B3F18F
:1002D00020020CDA0C3208DD02F1140CC2F10C021F
:1002E00001FA0CF021FA02F10CE002F11402D8BF7D
:1002F000C2F1200C01FA02F120FA0CFCDCBF41EA49
:100300000C019040E41AA2BF01EB0451294330BD17
:100310006FEA04041F3C1CDA0C340EDC04F11404F4
:10032000C4F1200220FA04F001FA02F340EA0300CB
:1003300021FA04F345EA030130BDC4F10C04C4F111
:10034000200220FA02F001FA04F340EA03002946F1
:1003500030BD21FA04F0294630BD94F0000F83F43B
:10036000801306BF81F480110134013D4EE77FEA1E
:10037000645C18BF7FEA655C29D094EA050F08BF6A
:1003800090EA020F05D054EA000C04BF194610464B
:1003900030BD91EA030F1EBF0021002030BD5FEA8F
:1003A000545C05D14000494128BF41F0004130BDB7
:1003B00014F580043CBF01F5801130BD01F000450B
:1003C00045F0FE4141F470014FF0000030BD7FEA7E
:1003D000645C1ABF194610467FEA655C1CBF0B4679
:1003E000024650EA013406BF52EA033591EA030F90
:1003F00041F4002130BD00BF90F0000F04BF002188
:10040000704730B54FF4806404F132044FF00005BA
:100410004FF0000150E700BF90F0000F04BF002133
:10042000704730B54FF4806404F1320410F0004599
:1004300048BF40424FF000013EE700BF42004FEA94
:10044000E2014FEA31014FEA02701FBF12F07F4311
:1004500093F07F4F81F06051704732F07F4208BFC8
:10046000704793F07F4F04BF41F40021704730B5CF
:100470004FF4607401F0004521F000411CE700BF1B
:1004800050EA010208BF704730B54FF000050AE09E
:1004900050EA010208BF704730B511F0004502D59F
:1004A000404261EB41014FF4806404F132045FEAA1
:1004B000915C3FF4D8AE4FF003025FEADC0C18BF4A
:1004C00003325FEADC0C18BF033202EBDC02C2F13C
:1004D000200300FA03FC20FA02F001FA03FE40EACE
:1004E0000E0021FA02F11444BDE600BF70B54FF0D2
:1004F000FF0C4CF4E06C1CEA11541DBF1CEA1355B0
:1005000094EA0C0F95EA0C0F00F0DEF82C4481EA17
:10051000030621EA4C5123EA4C5350EA013518BF37
:1005200052EA033541F4801143F4801338D0A0FB24
:1005300002CE4FF00005E1FB02E506F00042E0FBD1
:1005400003E54FF00006E1FB03569CF0000F18BFD7
:100550004EF0010EA4F1FF04B6F5007F64F540747F
:1005600004D25FEA4E0E6D4146EB060642EAC62112
:1005700041EA55514FEAC52040EA5E504FEACE2E7F
:10058000B4F1FD0C88BFBCF5E06F1ED8BEF1004F82
:1005900008BF5FEA500E50F1000041EB045170BDFE
:1005A00006F0004646EA010140EA020081EA030142
:1005B000B4EB5C04C2BFD4EB0C0541EA045170BD3E
:1005C00041F480114FF0000E013C00F3AB8014F1B8
:1005D000360FDEBF002001F0004170BDC4F1000401
:1005E000203C35DA0C341BDC04F11404C4F1200582
:1005F00000FA05F320FA04F001FA05F240EA0200DD
:1006000001F0004221F0004110EBD37021FA04F612
:1006100042EB06015EEA430E08BF20EAD37070BDCC
:10062000C4F10C04C4F1200500FA04F320FA05F02B
:1006300001FA04F240EA020001F0004110EBD3702D
:1006400041F100015EEA430E08BF20EAD37070BD9D
:10065000C4F1200500FA05F24EEA020E20FA04F376
:1006600001FA05F243EA020321FA04F001F0004125
:1006700021FA04F220EA020000EBD3705EEA430E96
:1006800008BF20EAD37070BD94F0000F0FD101F0C5
:100690000046400041EB010111F4801F08BF013CFE
:1006A000F7D041EA060195F0000F18BF704703F03C
:1006B0000046520043EB030313F4801F08BF013DC3
:1006C000F7D043EA0603704794EA0C0F0CEA13557F
:1006D00018BF95EA0C0F0CD050EA410618BF52EA39
:1006E0004306D1D181EA030101F000414FF000003F
:1006F00070BD50EA410606BF1046194652EA43064D
:1007000019D094EA0C0F02D150EA013613D195EAC0
:100710000C0F05D152EA03361CBF104619460AD108
:1007200081EA030101F0004141F0FE4141F4700112
:100730004FF0000070BD41F0FE4141F4780170BD02
:1007400070B54FF0FF0C4CF4E06C1CEA11541DBF67
:100750001CEA135594EA0C0F95EA0C0F00F0A7F869
:10076000A4EB050481EA030E52EA03354FEA013196
:1007700000F088804FEA03334FF0805545EA1313A9
:1007800043EA12634FEA022245EA111545EA106571
:100790004FEA00260EF000419D4208BF964244F108
:1007A000FD0404F5407402D25B084FEA3202B61A27
:1007B00065EB03055B084FEA32024FF480104FF4FB
:1007C000002CB6EB020E75EB030E22BFB61A75466F
:1007D00040EA0C005B084FEA3202B6EB020E75EB02
:1007E000030E22BFB61A754640EA5C005B084FEA6A
:1007F0003202B6EB020E75EB030E22BFB61A754637
:1008000040EA9C005B084FEA3202B6EB020E75EB41
:10081000030E22BFB61A754640EADC0055EA060E02
:1008200018D04FEA051545EA16754FEA06164FEA45
:10083000C30343EA52734FEAC2025FEA1C1CC0D1F1
:1008400011F4801F0BD141EA00014FF000004FF07E
:10085000004CB6E711F4801F04BF01430020B4F13F
:10086000FD0C88BFBCF5E06F3FF6AFAEB5EB030CF7
:1008700004BFB6EB020C5FEA500C50F1000041EBF4
:10088000045170BD0EF0004E4EEA113114EB5C04C1
:10089000C2BFD4EB0C0541EA045170BD41F4801194
:1008A0004FF0000E013C90E645EA060E8DE60CEA9C
:1008B000135594EA0C0F08BF95EA0C0F3FF43BAFB9
:1008C00094EA0C0F0AD150EA01347FF434AF95EA70
:1008D0000C0F7FF425AF104619462CE795EA0C0F54
:1008E00006D152EA03353FF4FDAE1046194622E721
:1008F00050EA410618BF52EA43067FF4C5AE50EAFB
:1009000041047FF40DAF52EA43057FF4EBAE12E7EA
:100910004FF0FF3C06E000BF4FF0010C02E000BFCB
:100920004FF0010C4DF804CD4FEA410C7FEA6C5CAE
:100930004FEA430C18BF7FEA6C5C1BD001B050EA51
:10094000410C0CBF52EA430C91EA030F02BF90EA3C
:10095000020F0020704710F1000F91EA030F58BFFB
:10096000994208BF90422CBFD8176FEAE37040F05D
:10097000010070474FEA410C7FEA6C5C02D150EAFB
:10098000013C07D14FEA430C7FEA6C5CD6D152EAB6
:10099000033CD3D05DF8040B704700BF844610467B
:1009A00062468C461946634600E000BF01B5FFF77A
:1009B000B7FF002848BF10F1000F01BD4DF808ED4A
:1009C000FFF7F4FF0CBF012000205DF808FB00BF1B
:1009D0004DF808EDFFF7EAFF34BF012000205DF875
:1009E00008FB00BF4DF808EDFFF7E0FF94BF0120C2
:1009F00000205DF808FB00BF4DF808EDFFF7CEFFC3
:100A000094BF012000205DF808FB00BF4DF808ED01
:100A1000FFF7C4FF34BF012000205DF808FB00BFD2
:100A20004FEA410C7FEA6C5C02D150EA013C0AD1EA
:100A30004FEA430C7FEA6C5C02D152EA033C02D1DC
:100A40004FF0000070474FF0010070474FEA41023D
:100A500012F5001215D211D56FF47873B3EB625210
:100A600012D94FEAC12343F0004343EA505311F037
:100A7000004F23FA02F018BF404270474FF00000C9
:100A8000704750EA013005D111F0004008BF6FF007
:100A9000004070474FF00000704700BF4A0011D27D
:100AA00012F5001211D20DD56FF47873B3EB6252C8
:100AB0000ED44FEAC12343F0004343EA505323FAD4
:100AC00002F070474FF00000704750EA013002D149
:100AD0004FF0FF3070474FF0000070474FEA41027F
:100AE000B2F1E04324BFB3F5001CDCF1FE5C0DD98C
:100AF00001F0004C4FEAC0024CEA5070B2F1004FD6
:100B000040EB830008BF20F00100704711F0804FD8
:100B100021D113F13872BCBF01F00040704741F49D
:100B200080114FEA5252C2F11802C2F1200C10FAA1
:100B30000CF320FA02F018BF40F001004FEAC12385
:100B40004FEAD32303FA0CFC40EA0C0023FA02F329
:100B50004FEA4303CCE77FEA625307D150EA0133FF
:100B60001EBF4FF0FE4040F44000704701F00040CF
:100B700040F0FE4040F40000704700BF80F00040AD
:100B800002E000BF81F0004142001FBF5FEA410365
:100B900092EA030F7FEA226C7FEA236C6AD04FEA65
:100BA0001262D2EB1363C1BFD218414048404140AA
:100BB000B8BF5B42192B88BF704710F0004F40F45C
:100BC000000020F07F4018BF404211F0004F41F478
:100BD000000121F07F4118BF494292EA030F3FD044
:100BE000A2F1010241FA03FC10EB0C00C3F1200357
:100BF00001FA03F100F0004302D5494260EB4000E6
:100C0000B0F5000F13D3B0F1807F06D340084FEA50
:100C1000310102F10102FE2A51D2B1F1004F40EB45
:100C2000C25008BF20F0010040EA030070474900AD
:100C300040EB0000013A28BFB0F5000FEDD2B0FA4A
:100C400080FCACF1080CB2EB0C0200FA0CF0AABF6D
:100C500000EBC25052421843BCBFD040184370470B
:100C600092F0000F81F4000106BF80F40000013211
:100C7000013BB5E74FEA41037FEA226C18BF7FEAE8
:100C8000236C21D092EA030F04D092F0000F08BF2A
:100C90000846704790EA010F1CBF0020704712F011
:100CA0007F4F04D1400028BF40F00040704712F150
:100CB00000723CBF00F50000704700F0004343F0B5
:100CC000FE4040F4000070477FEA226216BF0846EB
:100CD0007FEA23630146420206BF5FEA412390EAAE
:100CE000010F40F4800070474FF0000304E000BFA4
:100CF00010F0004348BF40425FEA000C08BF704755
:100D000043F0964301464FF000001CE050EA010218
:100D100008BF70474FF000030AE000BF50EA01022D
:100D200008BF704711F0004302D5404261EB41011A
:100D30005FEA010C02BF84460146002043F0B6433F
:100D400008BFA3F18053A3F50003BCFA8CF2083A64
:100D5000A3EBC25310DB01FA02FC634400FA02FC6D
:100D6000C2F12002BCF1004F20FA02F243EB020074
:100D700008BF20F00100704702F1200201FA02FCD6
:100D8000C2F1200250EA4C0021FA02F243EB0200C9
:100D900008BF20EADC7070474FF0FF0C1CEAD0520D
:100DA0001EBF1CEAD15392EA0C0F93EA0C0F6FD0CE
:100DB0001A4480EA010C400218BF5FEA41211ED0AC
:100DC0004FF0006343EA501043EA5111A0FB013198
:100DD0000CF00040B1F5000F3EBF490041EAD3716D
:100DE0005B0040EA010062F17F02FD2A1DD8B3F1E9
:100DF000004F40EBC25008BF20F00100704790F058
:100E0000000F0CF0004C08BF49024CEA502040EAA9
:100E100051207F3AC2BFD2F1FF0340EAC25070476F
:100E200040F400004FF00003013A5DDC12F1190FAD
:100E3000DCBF00F000407047C2F10002410021FA1F
:100E400002F1C2F1200200FA02FC5FEA310040F137
:100E5000000053EA4C0308BF20EADC70704792F0B0
:100E6000000F00F0004C02BF400010F4000F013AE8
:100E7000F9D040EA0C0093F0000F01F0004C02BFE3
:100E8000490011F4000F013BF9D041EA0C018FE752
:100E90000CEAD15392EA0C0F18BF93EA0C0F0AD058
:100EA00030F0004C18BF31F0004CD8D180EA01007E
:100EB00000F00040704790F0000F17BF90F0004F17
:100EC000084691F0000F91F0004F14D092EA0C0FF9
:100ED00001D142020FD193EA0C0F03D14B0218BF8C
:100EE000084608D180EA010000F0004040F0FE40D2
:100EF00040F40000704740F0FE4040F4400070476E
:100F00004FF0FF0C1CEAD0521EBF1CEAD15392EAEC
:100F10000C0F93EA0C0F69D0A2EB030280EA010CDC
:100F200049024FEA402037D04FF0805343EA111175
:100F300043EA10130CF000408B4238BF5B0042F1D3
:100F40007D024FF4000C8B4224BF5B1A40EA0C0078
:100F5000B3EB510F24BFA3EB510340EA5C00B3EBAA
:100F6000910F24BFA3EB910340EA9C00B3EBD10F98
:100F700024BFA3EBD10340EADC001B0118BF5FEAEA
:100F80001C1CE0D1FD2A3FF650AF8B4240EBC25013
:100F900008BF20F0010070470CF0004C4CEA5020D4
:100FA0007F32C2BFD2F1FF0340EAC250704740F423
:100FB00000004FF00003013A37E792F0000F00F015
:100FC000004C02BF400010F4000F013AF9D040EA93
:100FD0000C0093F0000F01F0004C02BF490011F427
:100FE000000F013BF9D041EA0C0195E70CEAD1531F
:100FF00092EA0C0F08D142027FF47DAF93EA0C0F06
:101000007FF470AF084676E793EA0C0F04D14B02E9
:101010003FF44CAF08466EE730F0004C18BF31F09B
:10102000004CCAD130F000427FF45CAF31F0004395
:101030007FF43CAF5FE700BF42000ED2B2F1FE4F3B
:101040000BD34FF09E03B3EB126209D44FEA002397
:1010500043F0004323FA02F070474FF0000070475E
:1010600012F1610F01D1420202D14FF0FF307047FF
:101070004FF00000704700BF38B505460C4600220F
:10108000002328462146FFF7A3FC28B9284621461D
:10109000BDE8384000F00AB8284604F1004100F0ED
:1010A00005F8404261EB410138BD00BFD0B50022D8
:1010B0000B4B06460F46FFF719FAFFF7EFFC044605
:1010C000FFF79AF90022074BFFF710FA02460B468A
:1010D00030463946FFF752F8FFF7E0FC2146D0BD15
:1010E0000000F03D0000F04180B400AFBFF34F8F2F
:1010F00000BF064BDB6803F4E0620449044B134372
:10110000CB60BFF34F8F00BF00BFFDE700ED00E0F5
:101110000400FA0580B582B000AF78604FF48051CA
:10112000044802F06BF900F0CFF800BF0837BD4665
:1011300080BD00BF000C0140B0B582B002AF01F02D
:1011400023F800F0B9FB00F033FD00F00DFC00F0D7
:10115000B1FC00F061FC00F0D7FC00F0FFFC00F0F7
:1011600041FC2C4802F080FF2B4805F087F900F085
:1011700029FA01F061F80346284A13600122284940
:10118000284803F084FC00F097F901F055F8024676
:10119000224B1B68D31AB3F5FA5F2AD9224BD3F836
:1011A00088301846FFF74AF904460D461F4B1B6965
:1011B0001846FFF743F902460B46CDE900232246C5
:1011C0002B461B491B4805F071F91A48FEF7CAFF68
:1011D00003469AB24FF496731649124803F042FB45
:1011E0001449154805F0C4F801F026F803460B4AE7
:1011F0001360124B1B78002B05D0114800F09AFAAF
:101200000E4B00221A700E4800F02AFB0D4802F027
:1012100050F9B8E748020020889F000830040020F9
:101220002E040020200300208003002068030020FB
:10123000A09F000834040020B09F0008480400204C
:10124000100400203C02002080B582B000AF78601E
:101250007B681A68174B1B689A4226D1164B9B7FF6
:10126000232B0DD0144BDB7F1A46134B997F124B67
:101270009954114BDB7F0133DAB20F4BDA770FE071
:101280000D4BDB7F1A460C4B002199540A4B002270
:10129000DA770949094805F06BF8094B01221A7001
:1012A00001220849034803F0F2FB00BF0837BD469E
:1012B00080BD00BF2003002010040020BC9F000858
:1012C000480400202E04002080B500AF1C4801F027
:1012D000B9F84FF0FF311A4801F08EF9194B1B7D18
:1012E0000133DAB2174B1A75154801F08BFA014633
:1012F000144B1B7D1A4689B2124B23F8121010486A
:1013000001F04EF90F4B1B7D052B16D10D4B002222
:101310001A750C4800F018F803461846FFF78CFEC3
:1013200003469AB2074B1A80064B1B881846FFF7F4
:10133000DBFC0346184600F02FF800BF80BD00BF5D
:101340000C0200206803002080B584B000AF7860F4
:101350000123BB6011E0BB685B007A6813441B8803
:101360001846FFF7C5FC03461946F868FFF70CFC62
:101370000346FB60BB680133BB60BB68052BEADD3D
:101380000449F868FFF7BCFD034618461037BD4610
:1013900080BD00BF0000A040B0B584B000AF786051
:1013A00029497868FFF7ACFD03461846FFF746F871
:1013B00023A3D3E90023FFF799F802460B46104612
:1013C0001946FFF78BFB0346FB60204B1B68F9684F
:1013D0001846FFF7E1FC03461846FFF72FF818A35D
:1013E000D3E90023FFF7ACF902460B4614461D462D
:1013F000174B1B681846FFF721F802460B4620469C
:101400002946FFF773F802460B4614461D460F4B5C
:101410001B681846FFF712F802460B46204629467D
:10142000FFF78EF902460B4610461946FFF756FBAA
:101430000346084A136100BF1037BD46B0BD00BF68
:101440009A99999999990940003078450C000020A3
:10145000080000206803002080B584B000AF00239E
:10146000FB734FF47A7380221049114803F07DFA20
:1014700010490E4805F053F8B860BB68002B0FD038
:101480000C490A4805F03AF80346FB73FB7B11331D
:1014900004221946054800F05DF878607B6800E09A
:1014A000002318461037BD4680BD00BF80030020D2
:1014B000D8020020CC9F0008B0B582B000AFFFF783
:1014C000CBFF7860786804F0C4F903461846FEF74D
:1014D000A3FF4FF000021A4BFFF732F902460B460A
:1014E00014461D46174B1B681846FEF7A7FF024619
:1014F0000B4620462946FEF7F9FF02460B461446E6
:101500001D46114B1B6811491846FFF745FC034661
:101510001846FEF793FF02460B4620462946FFF782
:101520000FF902460B4610461946FFF7D7FA034655
:10153000074AC2F8883000BF0837BD46B0BD00BFBB
:1015400000002440000000200400002000007A4435
:101550008003002080B586B000AFF860B9607A6083
:101560007B680133184604F0B7F903463B613B69D9
:10157000002B05D1124804F081FF012004F074F91A
:1015800000237B610EE0BB68013BFA681A447B696B
:1015900039690B4412781A70FB680133FB607B6970
:1015A00001337B617A697B689A42ECDB7B693A693B
:1015B000134400221A703B6918461837BD4680BD97
:1015C000D09F000880B584B000AF3E4804F056FFBD
:1015D0003B1D3D4A3D49184604F0B6F83B1D1846F0
:1015E00004F034F902460B4610461946FFF776FA26
:1015F0000346374A1360364B1B681846FEF71EFF3A
:1016000002460B46334804F0B3FE3B1D0A2200217C
:10161000184604F069F94FF4967000F017FE3B1D70
:101620002D4A2E49184604F08FF83B1D184604F049
:101630000DF902460B4610461946FFF74FFA0346CE
:10164000274A1360264B1B681846FEF7F7FE024632
:101650000B46244804F08CFE3B1D0A22002118464C
:1016600004F042F94FF4967000F0F0FD3B1D1E4A65
:101670001E49184604F068F83B1D184604F0E6F8C9
:1016800002460B4610461946FFF728FA0346184A49
:101690001360174B1B681846FEF7D0FE02460B4638
:1016A000144804F065FE3B1D0A220021184604F090
:1016B0001BF94FF4967000F0C9FD00BF1037BD460E
:1016C00080BD00BFEC9F000800FC010810F8010875
:1016D0000000002018A0000800EC010800E8010844
:1016E0000800002024A0000800F4010800F0010810
:1016F0000400002030A0000880B584B000AF7860FE
:1017000007F108031946786805F02AFD02460B46E2
:1017100010461946FFF7E2F90346FB60BB681B78E9
:10172000002B01D0002300E0012318461037BD46EE
:1017300080BD000090B58FB000AF7860012387F8BE
:1017400032303B497868FEF703FD0346002B03D196
:10175000384804F093FE67E03749786805F00CFDDF
:101760007863002387F8333030E097F8332007F1AF
:10177000080113469B0013445B000B44796B184629
:1017800004F0B4FE97F8334097F8332007F10801CE
:1017900013469B0013445B000B441846FFF7ACFF55
:1017A00003461A462146254804F0E2FD224900205E
:1017B00005F0E2FC786397F83330013387F8333073
:1017C00097F8333019461E4804F0D2FD7B6B002B8E
:1017D000CBD197F83330032B26D107F10803194AF0
:1017E0001949184604F000F8282000F02FFD07F1F1
:1017F00008031433154A1649184603F0F5FF28204C
:1018000000F024FD07F108030A33124A1249184672
:1018100003F0EAFF282000F019FD1E2200210F48E6
:1018200004F062F8FFF760FC3C37BD4690BD00BF96
:101830004CA0000850A0000860A0000864A00008A8
:1018400078A0000800FC010810F8010800EC01086D
:1018500000E8010800F4010800F00108100400206D
:1018600080B584B000AF78600849786804F057FE0E
:10187000F860FB68002B04D01E220021044804F00D
:1018800033F800BF1037BD4680BD00BF8CA00008F4
:101890001004002080B582B000AF7860391D4FF091
:1018A000FF330122034802F0DDFF7B68184608374A
:1018B000BD4680BD9002002080B594B000AF07F116
:1018C000280328220021184604F00EF807F114031B
:1018D00000221A605A609A60DA601A613B1D002289
:1018E0001A605A609A60DA600A23BB620123BB6304
:1018F0001023FB6301233B6402237B640023BB644E
:101900000023FB6407F12803184601F0E1FD0346BC
:10191000002B01D000F08CF90F237B610223BB6107
:101920000023FB614FF480633B6200237B6207F17D
:1019300014030021184602F04DF80346002B01D095
:1019400000F076F902237B604FF40043FB603B1DFF
:10195000184602F0CDF90346002B01D000F068F9DB
:1019600000BF5037BD4680BD80B584B000AF3B1D81
:1019700000221A605A609A60184B194A1A60174B75
:1019800000229A60154B00221A73144B00221A751C
:10199000124B4FF46022DA61104B00225A600F4B59
:1019A00001221A610D4800F075FC0346002B01D09E
:1019B00000F03EF900237B600123BB600023FB6045
:1019C0003B1D1946054800F0FBFF0346002B01D0E4
:1019D00000F02EF900BF1037BD4680BD0C0200207C
:1019E0000024014080B500AF094B0A4A1A60084B39
:1019F00006225A60064B40F6FF729A60044801F0D6
:101A000016FD0346002B01D000F012F900BF80BD87
:101A10003C0200200030004080B586B000AF07F1E6
:101A2000080300221A605A609A60DA603B4600227E
:101A30001A605A601E4B4FF080421A601C4B4FF4E4
:101A4000FA525A601A4B00229A60194B40F2E73260
:101A5000DA60174B00221A61154B00229A61144874
:101A600002F0B2FA0346002B01D000F0E1F84FF487
:101A70008053BB6007F1080319460D4802F04EFC85
:101A80000346002B01D000F0D3F800233B60002375
:101A90007B603B461946064802F024FE0346002BB5
:101AA00001D000F0C5F800BF1837BD4680BD00BFAB
:101AB0004802002080B500AF114B124A1A60104B4B
:101AC0004FF416525A600E4B00229A600C4B0022C3
:101AD000DA600B4B00221A61094B0C225A61084B49
:101AE00000229A61064B0022DA61054802F06AFE84
:101AF0000346002B01D000F09BF800BF80BD00BF63
:101B0000900200200038014080B500AF114B124A0E
:101B10001A60104B4FF416525A600E4B00229A6016
:101B20000C4B0022DA600B4B00221A61094B0C228D
:101B30005A61084B00229A61064B0022DA6105487F
:101B400002F040FE0346002B01D000F071F800BF08
:101B500080BD00BFD80200200044004080B500AF27
:101B6000114B124A1A60104B4FF416525A600E4B2A
:101B700000229A600C4B0022DA600B4B00221A61A3
:101B8000094B0C225A61084B00229A61064B002235
:101B9000DA61054802F016FE0346002B01D000F082
:101BA00047F800BF80BD00BF200300200048004070
:101BB00080B586B000AF07F1080300221A605A60B2
:101BC0009A60DA60184B9B69174A43F004039361EB
:101BD000154B9B6903F004037B607B68124B9B6988
:101BE000114A43F0080393610F4B9B6903F008030C
:101BF0003B603B6800224FF440510C4801F0E6FB8B
:101C00004FF44053BB600123FB6000233B61022380
:101C10007B6107F108031946044801F053FA00BF3D
:101C20001837BD4680BD00BF00100240000C0140C7
:101C300080B400AF72B600BFFEE7000080B485B08C
:101C400000AF154B9B69144A43F001039361124B9B
:101C50009B6903F00103BB60BB680F4BDB690E4A55
:101C600043F08053D3610C4BDB6903F080537B60FE
:101C70007B680A4B5B68FB60FB6823F0E063FB60FA
:101C8000FB6843F00073FB60044AFB68536000BFCD
:101C90001437BD4680BC7047001002400000014070
:101CA00080B588B000AF786007F1100300221A6099
:101CB0005A609A60DA607B681B68184A934229D19F
:101CC000174B9B69164A43F400739361144B9B694D
:101CD00003F40073FB60FB68114B9B69104A43F0EF
:101CE000040393610E4B9B6903F00403BB60BB6864
:101CF00003233B6103237B6107F110031946094865
:101D000001F0E0F900220421122001F0CCF81220A9
:101D100001F0E5F800BF2037BD4680BD002401403A
:101D2000001002400008014080B584B000AF786028
:101D30007B681B68B3F1804F13D10C4BDB690B4AF6
:101D400043F00103D361094BDB6903F00103FB603E
:101D5000FB68002202211C2001F0A5F81C2001F0E4
:101D6000BEF800BF1037BD4680BD00BF0010024066
:101D700080B58CB000AF786007F1200300221A60B4
:101D80005A609A60DA607B681B685B4A934232D182
:101D90005A4B9B69594A43F480439361574B9B6963
:101DA00003F48043FB61FB69544B9B69534A43F046
:101DB00004039361514B9B6903F00403BB61BB694E
:101DC0004FF400733B6202237B620323FB6207F143
:101DD000200319464A4801F075F94FF480633B62CD
:101DE00000237B620023BB6207F1200319464448AD
:101DF00001F068F97CE07B681B68424A934238D165
:101E00003E4BDB693D4A43F40033D3613B4BDB6916
:101E100003F400337B617B69384B9B69374A43F09D
:101E200004039361354B9B6903F004033B613B69F9
:101E300004233B6202237B620323FB6207F120033E
:101E400019462F4801F03EF908233B6200237B62CC
:101E50000023BB6207F120031946294801F032F93B
:101E600000220521262001F01EF8262001F037F877
:101E70003EE07B681B68244A934239D11F4BDB69E3
:101E80001E4A43F48023D3611C4BDB6903F4802397
:101E9000FB60FB68194B9B69184A43F00803936188
:101EA000164B9B6903F00803BB60BB684FF480636B
:101EB0003B6202237B620323FB6207F12003194686
:101EC000124801F0FFF84FF400633B6200237B628D
:101ED0000023BB6207F1200319460C4801F0F2F819
:101EE00000220121272000F0DEFF272000F0F7FF6D
:101EF00000BF3037BD4680BD0038014000100240B1
:101F0000000801400044004000480040000C01402F
:101F100080B400AFFEE780B400AFFEE780B400AF4E
:101F2000FEE780B400AFFEE780B400AFFEE780B408
:101F300000AF00BFBD4680BC704780B400AF00BF9B
:101F4000BD4680BC704780B400AF00BFBD4680BCBA
:101F5000704780B500AF00F05DF900BF80BD0000A4
:101F600080B500AF024800F059FC00BF80BD00BF43
:101F70000C02002080B500AF024802F0C7F800BF95
:101F800080BD00BF4802002080B500AF024802F0CB
:101F9000A3FD00BF80BD00BFD802002080B500AF08
:101FA000024802F099FD00BF80BD00BF2003002061
:101FB00080B400AF01231846BD4680BC704780B591
:101FC00082B000AF7860396003F048FC0346162207
:101FD0001A604FF0FF3318460837BD4680BD80B504
:101FE00082B000AF78604FF0FF317868FFF7E7FF0D
:101FF000FEE780B586B000AFF860B9607A60002374
:102000007B610AE0AFF300800146BB685A1CBA60EE
:10201000CAB21A707B6901337B617A697B689A4224
:10202000F0DB7B6818461837BD4680BD80B586B0AA
:1020300000AFF860B9607A6000237B6109E0BB689B
:102040005A1CBA601B781846FFF724FC7B690133E1
:102050007B617A697B689A42F1DB7B6818461837A6
:10206000BD4680BD80B483B000AF78604FF0FF33D1
:1020700018460C37BD4680BC704780B483B000AFB3
:10208000786039603B684FF400525A60002318466C
:102090000C37BD4680BC704780B483B000AF786019
:1020A000012318460C37BD4680BC704780B485B00C
:1020B00000AFF860B9607A60002318461437BD4657
:1020C00080BC704780B586B000AF7860144A154B6D
:1020D000D31A7B617B693B61134B1B68002B02D1D8
:1020E000114B124A1A60104B1A687B6813443A6904
:1020F0009A4207D203F0B2FB03460C221A604FF05B
:10210000FF3309E0084B1B68FB60074B1A687B68CC
:102110001344054A1360FB6818461837BD4680BD56
:1021200000500020000400004C040020680400203F
:1021300080B400AF00BFBD4680BC7047FFF7F8FF1A
:102140000B480C490C4A002302E0D458C450043315
:10215000C4188C42F9D3094A094C002301E01360EA
:102160000432A242FBD303F093FBFEF7E5FF704776
:1021700000000020F0010020E0A50008F001002090
:1021800068040020FEE7000080B500AF084B1B6824
:10219000074A43F010031360032000F079FE0F207C
:1021A00000F008F8FFF74AFD0023184680BD00BF85
:1021B0000020024080B582B000AF7860124B1A68F0
:1021C000124B1B7819464FF47A73B3FBF1F3B2FB51
:1021D000F3F3184600F091FE0346002B01D00123D3
:1021E0000EE07B680F2B0AD8002279684FF0FF3091
:1021F00000F059FE064A7B681360002300E00123CB
:1022000018460837BD4680BD100000201800002089
:102210001400002080B400AF054B1B781A46054B14
:102220001B681344034A136000BFBD4680BC70475F
:10223000180000205004002080B400AF024B1B683F
:102240001846BD4680BC70475004002080B584B05D
:1022500000AF7860FFF7F0FFB8607B68FB60FB6859
:10226000B3F1FF3F05D00A4B1B781A46FB681344B5
:10227000FB6000BFFFF7E0FF0246BB68D31AFA68B5
:102280009A42F7D800BF00BF1037BD4680BD00BFDF
:102290001800002080B586B000AF78600023FB7581
:1022A00000233B610023BB600023FB607B68002BA5
:1022B00001D10123BEE07B689B68002B7B689B6A91
:1022C000002B09D17B680022DA627B68002283F848
:1022D00024207868FFF7E4FC786800F0C3FC03462C
:1022E000FB757B689B6A03F01003002B40F099801C
:1022F000FB7D002B40F095807B689B6A23F488531C
:1023000023F0020343F002027B689A627B685A68FA
:102310007B68DB691A437B681B7B5B001343BA68ED
:102320001343BB607B689B68B3F5807F03D07B68F9
:102330009B68012B02D14FF4807300E000233A69BF
:1023400013433B617B681B7D012B19D17B681B7B91
:10235000002B09D17B689B69013B5A033B691343FE
:1023600043F400633B610BE07B689B6A43F020020F
:102370007B689A627B68DB6A43F001027B68DA6201
:102380007B681B685B6823F469417B681B683A695A
:102390000A435A607B681B689A68284B13407A6826
:1023A0001268B9680B4393607B689B68B3F5807FC4
:1023B00003D07B689B68012B04D17B681B69013BC0
:1023C0001B05FB607B681B68DB6A23F470017B687C
:1023D0001B68FA680A43DA627B681B689A68184BC4
:1023E0001340BA689A420BD17B680022DA627B689C
:1023F0009B6A23F0030343F001027B689A6218E0B2
:102400007B689B6A23F0120343F010027B689A6298
:102410007B68DB6A43F001027B68DA620123FB75AB
:1024200007E07B689B6A43F010027B689A62012395
:10243000FB75FB7D18461837BD4680BDFDF7E1FFF3
:10244000FE0E1FFF80B584B000AF78600023FB73E1
:102450007B6893F82430012B01D1022398E07B683C
:10246000012283F82420786800F0A2FB0346FB7366
:10247000FB7B002B40F087807B689B6A23F44073D2
:1024800023F0010343F480727B689A627B681B68C7
:10249000414A934205D1414B5B6803F47023002B02
:1024A00015D17B689B6A23F480127B689A627B68F3
:1024B0001B685B6803F48063002B26D07B689B6AF3
:1024C00023F4405343F480527B689A621DE07B689A
:1024D0009B6A43F480127B689A627B681B682F4A70
:1024E000934204D07B681B682B4A93420DD12B4B3F
:1024F0005B6803F48063002B07D07B689B6A23F43E
:10250000405343F480527B689A627B689B6A03F471
:102510008053002B06D07B68DB6A23F006027B68C1
:10252000DA6202E07B680022DA627B68002283F8CC
:1025300024207B681B686FF002021A607B681B68AE
:102540009B6803F46023B3F5602F13D17B681B688D
:10255000114A934205D1114B5B6803F47023002BA1
:1025600008D17B681B689A687B681B6842F4A002EC
:102570009A600CE07B681B689A687B681B6842F471
:1025800080129A6003E07B68002283F82420FB7BA2
:1025900018461037BD4680BD002801400024014088
:1025A00080B584B000AF78600023FB737B6893F83C
:1025B0002430012B01D102231AE07B68012283F829
:1025C0002420786800F04EFB0346FB73FB7B002B56
:1025D00009D17B689B6A23F4885323F0010343F0FD
:1025E00001027B689A627B68002283F82420FB7BCF
:1025F00018461037BD4680BD90B587B000AF7860F3
:10260000396000237B610023FB6000233B61FFF7FF
:1026100013FE78617B681B689B6803F48073002B52
:102620000BD07B689B6A43F020027B689A627B68D0
:10263000002283F824200123D3E07B681B685B68B9
:1026400003F48073002B31D17B681B68DB6A03F4D1
:102650007003002B2AD121E03B68B3F1FF3F1DD06E
:102660003B68002B07D0FFF7E7FD02467B69D31AD2
:102670003A689A4212D27B681B681B6803F0020317
:10268000002B0BD17B689B6A43F004027B689A6243
:102690007B68002283F824200323A2E07B681B6868
:1026A0001B6803F00203002BD6D070E04F4B1C6870
:1026B000022001F0D3FB0346B4FBF3F27B681B68F6
:1026C00019694B4B0B40002B18D17B681B68D968EC
:1026D000484B0B40002B11D17B681B681969464B96
:1026E0000B40002B08D17B681B68D968434B0B401B
:1026F000002B01D1142320E029231EE07B681B68F6
:1027000019693D4B0B40002B06D17B681B68D968CB
:102710003A4B0B40002B0DD07B681B681969384B76
:102720000B40002B08D17B681B68D968344B0B40E9
:10273000002B01D1542300E0FC2302FB03F33B6197
:1027400021E03B68B3F1FF3F1AD03B68002B07D074
:10275000FFF772FD02467B69D31A3A689A420FD29C
:10276000FB683A699A420BD97B689B6A43F0040282
:102770007B689A627B68002283F82420032330E080
:10278000FB680133FB60FB683A699A42D9D87B68E1
:102790001B686FF012021A607B689B6A43F4007238
:1027A0007B689A627B681B689B6803F46023B3F5BF
:1027B000602F15D17B681B7B002B11D17B689B6A36
:1027C00023F480727B689A627B689B6A03F480536F
:1027D000002B05D17B689B6A43F001027B689A62FB
:1027E000002318461C37BD4690BD00BF10000020D6
:1027F00024499224244992009224491292244900A7
:102800004992240080B483B000AF78607B681B6875
:10281000DB6C18460C37BD4680BC704780B584B071
:1028200000AF78607B681B681B68FB607B681B6877
:102830005B68BB60BB6803F02003002B3ED0FB68E5
:1028400003F00203002B39D07B689B6A03F010036E
:10285000002B05D17B689B6A43F400727B689A6207
:102860007B681B689B6803F46023B3F5602F1DD160
:102870007B681B7B002B19D17B681B685A687B68BF
:102880001B6822F020025A607B689B6A23F48072E6
:102890007B689A627B689B6A03F48053002B05D1A6
:1028A0007B689B6A43F001027B689A62786800F05B
:1028B00074F87B681B686FF012021A60BB6803F043
:1028C0008003002B4DD0FB6803F00403002B48D09D
:1028D0007B689B6A03F01003002B05D17B689B6A21
:1028E00043F400527B689A627B681B689B6803F420
:1028F000E043B3F5E04F12D07B681B685B6803F4DC
:102900008063002B25D17B681B689B6803F46023E0
:10291000B3F5602F1DD17B681B7B002B19D17B6821
:102920001B685A687B681B6822F080025A607B68CB
:102930009B6A23F480527B689A627B689B6A03F4EB
:102940008073002B05D17B689B6A43F001027B6892
:102950009A62786800F0C7F97B681B686FF00C0218
:102960001A60BB6803F04003002B12D0FB6803F031
:102970000103002B0DD07B689B6A43F480327B6897
:102980009A62786800F012F87B681B686FF00102A9
:102990001A6000BF1037BD4680BD80B483B000AF61
:1029A000786000BF0C37BD4680BC704780B483B0F0
:1029B00000AF786000BF0C37BD4680BC7047000098
:1029C00080B485B000AF786039600023FB730023CA
:1029D000BB607B6893F82430012B01D10223DCE03B
:1029E0007B68012283F824203B685B68062B1CD897
:1029F0007B681B68596B3B685A6813469B001344FD
:102A0000053B1F2202FA03F3DB4319403B681868B9
:102A10003B685A6813469B001344053B00FA03F2D7
:102A20007B681B680A435A633CE03B685B680C2B7D
:102A30001CD87B681B68196B3B685A6813469B005F
:102A40001344233B1F2202FA03F3DB4319403B6884
:102A500018683B685A6813469B001344233B00FAEE
:102A600003F27B681B680A431A631BE07B681B68E0
:102A7000D96A3B685A6813469B001344413B1F22A6
:102A800002FA03F3DB4319403B6818683B685A6855
:102A900013469B001344413B00FA03F27B681B681A
:102AA0000A43DA623B681B68092B1CD97B681B68E8
:102AB000D9683B681A6813465B0013441E3B072223
:102AC00002FA03F3DB4319403B6898683B681A68D5
:102AD00013465B0013441E3B00FA03F27B681B683D
:102AE0000A43DA6019E07B681B6819693B681A6859
:102AF00013465B001344072202FA03F3DB43194039
:102B00003B6898683B681A6813465B00134400FAF8
:102B100003F27B681B680A431A613B681B68102B31
:102B200003D03B681B68112B32D17B681B681D4AA0
:102B3000934225D17B681B689B6803F40003002B3C
:102B400026D17B681B689A687B681B6842F4000288
:102B50009A603B681B68102B1AD1134B1B68134AF1
:102B6000A2FB03239A0C13469B0013445B00BB603B
:102B700002E0BB68013BBB60BB68002BF9D107E0FA
:102B80007B689B6A43F020027B689A620123FB7397
:102B90007B68002283F82420FB7B18461437BD464F
:102BA00080BC7047002401401000002083DE1B43DE
:102BB00080B584B000AF78600023FB600023BB6069
:102BC0007B681B689B6803F00103012B40D07B6886
:102BD0001B689A687B681B6842F001029A601F4B71
:102BE0001B681F4AA2FB03239B0CBB6002E0BB686F
:102BF000013BBB60BB68002BF9D1FFF71DFBF86000
:102C00001FE0FFF719FB0246FB68D31A022B18D905
:102C10007B681B689B6803F00103012B11D07B6864
:102C20009B6A43F010027B689A627B68DB6A43F020
:102C300001027B68DA627B68002283F8242001238A
:102C400007E07B681B689B6803F00103012BD8D168
:102C5000002318461037BD4680BD00BF100000207D
:102C600083DE1B4380B584B000AF78600023FB6037
:102C70007B681B689B6803F00103012B2ED17B68E6
:102C80001B689A687B681B6822F001029A60FFF754
:102C9000D3FAF8601BE0FFF7CFFA0246FB68D31ABD
:102CA000022B14D97B681B689B6803F00103012B7E
:102CB0000DD17B689B6A43F010027B689A627B6847
:102CC000DB6A43F001027B68DA62012307E07B687C
:102CD0001B689B6803F00103012BDCD0002318461E
:102CE0001037BD4680BD80B483B000AF786000BFB0
:102CF0000C37BD4680BC704780B485B000AF7860AB
:102D00007B6803F00703FB600C4BDB68BB60BA68B1
:102D10004FF6FF031340BB60FB681A02BB68134306
:102D200043F0BF6343F40033BB60044ABB68D36025
:102D300000BF1437BD4680BC704700BF00ED00E007
:102D400080B400AF044BDB681B0A03F0070318468E
:102D5000BD4680BC704700BF00ED00E080B483B08A
:102D600000AF0346FB7197F90730002B0BDBFB79B3
:102D700003F01F02064997F907305B09012000FAAA
:102D800002F241F8232000BF0C37BD4680BC7047DB
:102D900000E100E080B483B000AF03463960FB710E
:102DA00097F90730002B0ADB3B68DAB20C4997F938
:102DB00007301201D2B20B4483F800230AE03B68CB
:102DC000DAB20849FB7903F00F03043B1201D2B2D7
:102DD0000B441A7600BF0C37BD4680BC704700BF5D
:102DE00000E100E000ED00E080B489B000AFF860E1
:102DF000B9607A60FB6803F00703FB61FB69C3F10C
:102E00000703042B28BF0423BB61FB690433062B93
:102E100002D9FB69033B00E000237B614FF0FF32E6
:102E2000BB6902FA03F3DA43BB681A407B699A4034
:102E30004FF0FF317B6901FA03F3D9437B680B4004
:102E4000134318462437BD4680BC704780B582B016
:102E500000AF78607B68013BB3F1807F01D3012331
:102E60000FE00A4A7B68013B53600F214FF0FF30AF
:102E7000FFF790FF054B00229A60044B07221A606F
:102E8000002318460837BD4680BD00BF10E000E0B3
:102E900080B582B000AF78607868FFF72DFF00BF83
:102EA0000837BD4680BD80B586B000AF0346B96027
:102EB0007A60FB7300237B61FFF742FF78617A68D9
:102EC000B9687869FFF790FF024697F90F3011460D
:102ED0001846FFF75FFF00BF1837BD4680BD80B5BD
:102EE00082B000AF0346FB7197F907301846FFF731
:102EF00035FF00BF0837BD4680BD80B582B000AF4A
:102F000078607868FFF7A2FF034618460837BD4689
:102F100080BD80B485B000AF78600023FB737B6810
:102F200093F82130DBB2022B08D07B6804229A632D
:102F30007B68002283F82020012320E07B681B6847
:102F40001A687B681B6822F00E021A607B681B6897
:102F50001A687B681B6822F001021A607B681A6C91
:102F60007B68DB6B012101FA02F25A607B68012267
:102F700083F821207B68002283F82020FB7B184601
:102F80001437BD4680BC704780B584B000AF786010
:102F90000023FB737B6893F82130DBB2022B05D052
:102FA0007B6804229A630123FB7351E07B681B68F2
:102FB0001A687B681B6822F00E021A607B681B6827
:102FC0001A687B681B6822F001021A607B681B6824
:102FD000224A934229D07B681B68214A934222D01F
:102FE0007B681B681F4A93421AD07B681B681E4A85
:102FF000934212D07B681B681C4A93420AD07B68BC
:103000001B681B4A934202D14FF480130EE04FF02D
:1030100080730BE04FF4803308E04FF4805305E0F9
:103020004FF4807302E0102300E00123114A536043
:103030007B68012283F821207B68002283F820200E
:103040007B685B6B002B03D07B685B6B7868984771
:10305000FB7B18461037BD4680BD00BF080002400C
:103060001C00024030000240440002405800024070
:103070006C0002400000024080B483B000AF002327
:10308000FB710D4B1B6903F08003002B0DD00A4B25
:103090000A4A5A60084B0A4A5A60074B1B6903F0F8
:1030A0008003002B01D00123FB71FB7918460C37FC
:1030B000BD4680BC704700BF002002402301674529
:1030C000AB89EFCD80B48BB000AF7860396000235E
:1030D0007B6200233B6269E101227B6A02FA03F30F
:1030E000FB613B681B68FA691340BB61BA69FB6905
:1030F0009A4240F058813B685B689A4A93425ED09E
:10310000984A934275D8984A934258D0964A934227
:103110006FD8964A934252D0944A934269D8944ABF
:1031200093424CD0924A934263D8924A934246D0FB
:10313000904A93425DD8122B2AD8122B59D801A25B
:1031400052F823F0BF31000899310008AB31000874
:10315000ED310008F3310008F3310008F3310008C5
:10316000F3310008F3310008F3310008F3310008AF
:10317000F3310008F3310008F3310008F33100089F
:10318000F3310008F3310008A1310008B53100081F
:10319000794A934213D02CE03B68DB683B6229E01C
:1031A0003B68DB6804333B6224E03B68DB68083340
:1031B0003B621FE03B68DB680C333B621AE03B6814
:1031C0009B68002B02D104233B6213E03B689B68A1
:1031D000012B05D108233B627B68FA691A6109E07B
:1031E00008233B627B68FA695A6103E000233B6273
:1031F00000E000BFBB69FF2B01D87B6801E07B6862
:1032000004337B61BB69FF2B02D87B6A9B0002E021
:103210007B6A083B9B003B617B691A680F213B6915
:1032200001FA03F3DB431A40396A3B6901FA03F3FD
:103230001A437B691A603B685B6803F08053002B7C
:1032400000F0B1804D4B9B694C4A43F00103936100
:103250004A4B9B6903F00103BB60BB68484A7B6A29
:103260009B08023352F82330FB607B6A03F00303B0
:103270009B000F2202FA03F3DB43FA681340FB6062
:103280007B68404A934213D07B683F4A93420DD0FB
:103290007B683E4A934207D07B683D4A934201D106
:1032A000032306E0042304E0022302E0012300E0FC
:1032B00000237A6A02F0030292009340FA681343F3
:1032C000FB602F497B6A9B080233FA6841F8232090
:1032D0003B685B6803F48013002B06D02D4B9A6883
:1032E0002C49BB6913438B6006E02A4B9A68BB6983
:1032F000DB43284913408B603B685B6803F4001391
:10330000002B06D0234BDA682249BB691343CB60FC
:1033100006E0204BDA68BB69DB431E491340CB60F3
:103320003B685B6803F40033002B06D0194B5A68E6
:103330001849BB6913434B6006E0164B5A68BB69DA
:10334000DB43144913404B603B685B6803F48033F4
:10335000002B21D00F4B1A680E49BB6913430B6039
:1033600021E000BF000032100000311000002210E8
:103370000000211000001210000011100010024087
:103380000000014000080140000C01400010014015
:1033900000140140000401400B4B1A68BB69DB4379
:1033A000094913400B607B6A01337B623B681A68F2
:1033B0007B6A22FA03F3002B7FF48EAE00BF00BFBE
:1033C0002C37BD4680BC70470004014080B483B0F8
:1033D00000AF78600B467B8013467B707B78002BB8
:1033E00003D07A887B681A6103E07B881A047B68C3
:1033F0001A6100BF0C37BD4680BC704780B485B0F1
:1034000000AF78600B467B807B68DB68FB607A8866
:10341000FB6813401A04FB68D9437B880B401A43AE
:103420007B681A6100BF1437BD4680BC704780B509
:1034300084B000AF78607B68002B01D1012334E0B9
:103440007B681B684CF6CC421A607B681B6845F2AF
:1034500055521A607B681B687A6852685A607B68AC
:103460001B687A6892689A60FEF7E6FEF8600FE0E3
:10347000FEF7E2FE0246FB68D31A272B08D97B68C9
:103480001B68DB6803F00303002B01D003230CE06F
:103490007B681B68DB6803F00303002BE8D17B68C3
:1034A0001B684AF6AA221A60002318461037BD4648
:1034B00080BD80B483B000AF78607B681B684AF63B
:1034C000AA221A60002318460C37BD4680BC7047FC
:1034D00080B586B000AF78607B68002B01D10123F6
:1034E00072E27B681B6803F00103002B00F0878009
:1034F000924B5B6803F00C03042B0CD08F4B5B6882
:1035000003F00C03082B12D18C4B5B6803F480335F
:10351000B3F5803F0BD1894B1B6803F40033002BBC
:103520006CD07B685B68002B68D101234CE27B6820
:103530005B68B3F5803F06D1804B1B687F4A43F43C
:10354000803313602EE07B685B68002B0CD17B4BD3
:103550001B687A4A23F480331360784B1B68774AE0
:1035600023F4802313601DE07B685B68B3F5A02F14
:103570000CD1724B1B68714A43F4802313606F4B6C
:103580001B686E4A43F4803313600BE06B4B1B687F
:103590006A4A23F480331360684B1B68674A23F43C
:1035A000802313607B685B68002B13D0FEF744FE1A
:1035B000386108E0FEF740FE02463B69D31A642BEF
:1035C00001D9032300E25D4B1B6803F40033002B99
:1035D000F0D014E0FEF730FE386108E0FEF72CFE74
:1035E00002463B69D31A642B01D90323ECE1534B08
:1035F0001B6803F40033002BF0D100E000BF7B68B0
:103600001B6803F00203002B63D04C4B5B6803F094
:103610000C03002B0BD0494B5B6803F00C03082B09
:103620001CD1464B5B6803F48033002B16D1434B0F
:103630001B6803F00203002B05D07B681B69012B7C
:1036400001D00123C0E13D4B1B6823F0F8027B68E9
:103650005B69DB00394913430B603AE07B681B6907
:10366000002B20D0364B01221A60FEF7E5FD3861B1
:1036700008E0FEF7E1FD02463B69D31A022B01D9AF
:103680000323A1E12D4B1B6803F00203002BF0D0B4
:103690002A4B1B6823F0F8027B685B69DB00274933
:1036A00013430B6015E0264B00221A60FEF7C4FDA1
:1036B000386108E0FEF7C0FD02463B69D31A022BD1
:1036C00001D9032380E11D4B1B6803F00203002B8B
:1036D000F0D17B681B6803F00803002B3AD07B68AD
:1036E0009B69002B19D0174B01221A60FEF7A4FD2D
:1036F000386108E0FEF7A0FD02463B69D31A022BB1
:1037000001D9032360E10D4B5B6A03F00203002B38
:10371000F0D0012000F0CEFA1CE00A4B00221A6023
:10372000FEF78AFD38610FE0FEF786FD02463B6931
:10373000D31A022B08D9032346E100BF0010024030
:103740000000424280044242924B5B6A03F0020353
:10375000002BE9D17B681B6803F00403002B00F009
:10376000A6800023FB758B4BDB6903F08053002B95
:103770000DD1884BDB69874A43F08053D361854B79
:10378000DB6903F08053BB60BB680123FB75824B90
:103790001B6803F48073002B18D17F4B1B687E4A93
:1037A00043F480731360FEF747FD386108E0FEF7CD
:1037B00043FD02463B69D31A642B01D9032303E17D
:1037C000754B1B6803F48073002BF0D07B68DB68BB
:1037D000012B06D16F4B1B6A6E4A43F00103136243
:1037E0002DE07B68DB68002B0CD16A4B1B6A694AB1
:1037F00023F001031362674B1B6A664A23F004033C
:1038000013621CE07B68DB68052B0CD1614B1B6AE3
:10381000604A43F0040313625E4B1B6A5D4A43F047
:10382000010313620BE05B4B1B6A5A4A23F001034E
:103830001362584B1B6A574A23F0040313627B68D8
:10384000DB68002B15D0FEF7F7FC38610AE0FEF7C5
:10385000F3FC02463B69D31A41F28832934201D904
:103860000323B1E04B4B1B6A03F00203002BEED0A5
:1038700014E0FEF7E1FC38610AE0FEF7DDFC0246E9
:103880003B69D31A41F28832934201D903239BE06A
:10389000404B1B6A03F00203002BEED1FB7D012B92
:1038A00005D13C4BDB693B4A23F08053D3617B68F5
:1038B000DB69002B00F08780364B5B6803F00C035C
:1038C000082B61D07B68DB69022B46D1334B002289
:1038D0001A60FEF7B1FC386108E0FEF7ADFC024665
:1038E0003B69D31A022B01D903236DE0294B1B68D6
:1038F00003F00073002BF0D17B681B6AB3F5803FA7
:1039000008D1244B5B6823F400327B689B68214913
:1039100013434B601F4B5B6823F474127B68196A76
:103920007B685B6A0B431B4913434B601B4B0122B3
:103930001A60FEF781FC386108E0FEF77DFC024664
:103940003B69D31A022B01D903233DE0114B1B68BD
:1039500003F00073002BF0D035E0104B00221A600A
:10396000FEF76AFC386108E0FEF766FC02463B6938
:10397000D31A022B01D9032326E0064B1B6803F060
:103980000073002BF0D11EE07B68DB69012B07D1AF
:10399000012319E000100240007000406000424224
:1039A0000B4B5B68FB60FB6803F480327B681B6A2F
:1039B0009A4206D1FB6803F470127B685B6A9A42F4
:1039C00001D0012300E0002318461837BD4680BD12
:1039D0000010024080B584B000AF786039607B6829
:1039E000002B01D10123D0E06A4B1B6803F00703D1
:1039F0003A689A4210D9674B1B6823F00702654961
:103A00003B6813430B60634B1B6803F007033A6882
:103A10009A4201D00123B8E07B681B6803F00203DF
:103A2000002B20D07B681B6803F00403002B05D01B
:103A3000594B5B68584A43F4E06353607B681B68EA
:103A400003F00803002B05D0534B5B68524A43F444
:103A500060535360504B5B6823F0F0027B689B68B7
:103A60004D4913434B607B681B6803F00103002B37
:103A700040D07B685B68012B07D1474B1B6803F480
:103A80000033002B15D101237FE07B685B68022B9C
:103A900007D1414B1B6803F00073002B09D10123B0
:103AA00073E03D4B1B6803F00203002B01D101239F
:103AB0006BE0394B5B6823F003027B685B68364937
:103AC00013434B60FEF7B8FBF8600AE0FEF7B4FB67
:103AD0000246FB68D31A41F28832934201D903238C
:103AE00053E02D4B5B6803F00C027B685B689B0026
:103AF0009A42EBD1274B1B6803F007033A689A42BE
:103B000010D2244B1B6823F0070222493B68134361
:103B10000B60204B1B6803F007033A689A4201D000
:103B2000012332E07B681B6803F00403002B08D0FC
:103B3000194B5B6823F4E0627B68DB68164913432A
:103B40004B607B681B6803F00803002B09D0124B05
:103B50005B6823F460527B681B69DB000E491343EA
:103B60004B6000F021F802460B4B5B681B0903F029
:103B70000F030A49CB5C22FA03F3094A1360094B8D
:103B80001B681846FEF716FB002318461037BD4683
:103B900080BD00BF002002400010024098A0000835
:103BA000100000201400002080B487B000AF002374
:103BB000FB600023BB6000237B6100237B6000234C
:103BC0003B611E4B5B68FB60FB6803F00C03042B3E
:103BD00002D0082B03D027E0194B3B6127E0FB689C
:103BE0009B0C03F00F03174AD35C7B60FB6803F464
:103BF0008033002B10D0114B5B685B0C03F001038A
:103C0000114AD35CBB607B680D4A03FB02F2BB68C0
:103C1000B2FBF3F37B6104E07B680C4A02FB03F325
:103C20007B617B693B6102E0054B3B6100BF3B6907
:103C300018461C37BD4680BC704700BF00100240CC
:103C400000127A00B0A00008C0A0000800093D00E2
:103C500080B400AF024B1B681846BD4680BC70475D
:103C60001000002080B500AFFFF7F2FF0246054BC1
:103C70005B681B0A03F007030349CB5C22FA03F3DA
:103C8000184680BD00100240A8A0000880B500AF13
:103C9000FFF7DEFF0246054B5B68DB0A03F0070314
:103CA0000349CB5C22FA03F3184680BD00100240A2
:103CB000A8A0000880B485B000AF78600A4B1B68EC
:103CC0000A4AA2FB03235B0A7A6802FB03F3FB6048
:103CD00000BFFB685A1EFA60002BF9D100BF00BF7D
:103CE0001437BD4680BC704710000020D34D6210D1
:103CF00080B586B000AF786000233B610023FB6095
:103D00007B681B6803F00103002B7DD00023FB754B
:103D10004F4BDB6903F08053002B0DD14C4BDB691B
:103D20004B4A43F08053D361494BDB6903F0805326
:103D3000BB60BB680123FB75464B1B6803F48073B3
:103D4000002B18D1434B1B68424A43F48073136025
:103D5000FEF772FA386108E0FEF76EFA02463B6938
:103D6000D31A642B01D903236DE03A4B1B6803F48B
:103D70008073002BF0D0364B1B6A03F44073FB605A
:103D8000FB68002B2ED07B685B6803F44073FA68F5
:103D90009A4227D02E4B1B6A23F44073FB602E4BB4
:103DA00001221A602C4B00221A60294AFB68136218
:103DB000FB6803F00103002B14D0FEF73DFA3861D5
:103DC0000AE0FEF739FA02463B69D31A41F288321B
:103DD000934201D9032336E01D4B1B6A03F0020313
:103DE000002BEED01A4B1B6A23F440727B685B6891
:103DF000174913430B62FB7D012B05D1144BDB6983
:103E0000134A23F08053D3617B681B6803F00203DD
:103E1000002B08D00E4B5B6823F440427B689B6804
:103E20000B4913434B607B681B6803F01003002BA6
:103E300008D0074B5B6823F480027B68DB68044989
:103E400013434B60002318461837BD4680BD00BFA2
:103E500000100240007000404004424280B588B02B
:103E600000AF786000237B610023FB6100233B618E
:103E70000023FB600023BB617B68102B0AD07B68AA
:103E8000102B00F28A807B68012B45D07B68022BC7
:103E900075D082E0464B5B68FB60454B1B6803F0C6
:103EA0008073002B7BD0FB689B0C03F00F03414A0F
:103EB000D35C3B61FB6803F48033002B15D03C4B93
:103EC0005B685B0C03F001033B4AD35C7B61FB68DE
:103ED00003F48033002B0DD0384A7B69B2FBF3F238
:103EE0003B6902FB03F3FB6104E03B69344A02FBDC
:103EF00003F3FB612E4B5B6803F48003B3F5800F83
:103F000002D1FB69BB614AE0FB695B002D4AA2FB61
:103F100003235B08BB6142E0254B1B6AFB60FB6827
:103F200003F44073B3F5807F08D1FB6803F002030C
:103F3000002B03D04FF40043BB611FE0FB6803F488
:103F40004073B3F5007F09D1194B5B6A03F002039C
:103F5000002B03D049F64043BB610FE0FB6803F43C
:103F60004073B3F5407F1CD1114B1B6803F4003341
:103F7000002B16D04FF22443BB6112E011E0FFF793
:103F800085FE02460A4B5B689B0B03F0030301337B
:103F90005B00B2FBF3F3BB6104E000BF02E000BFD3
:103FA00000E000BFBB6918462037BD4680BD00BF9A
:103FB00000100240C4A00008D4A0000800127A003B
:103FC00000093D00ABAAAAAA80B582B000AF786014
:103FD0007B68002B01D1012341E07B6893F83D30E1
:103FE000DBB2002B06D17B68002283F83C20786886
:103FF000FDF79AFE7B68022283F83D207B681A68F1
:104000007B6804331946104600F074FA7B6801227D
:1040100083F846207B68012283F83E207B680122DA
:1040200083F83F207B68012283F840207B680122CF
:1040300083F841207B68012283F842207B680122BB
:1040400083F843207B68012283F844207B680122A7
:1040500083F845207B68012283F83D200023184621
:104060000837BD4680BD000080B485B000AF7860E1
:104070007B6893F83D30DBB2012B01D001233AE09D
:104080007B68022283F83D207B681B68DA687B68C6
:104090001B6842F00102DA607B681B68184A934291
:1040A0000ED07B681B68B3F1804F09D07B681B681A
:1040B000144A934204D07B681B68134A934211D17F
:1040C0007B681B689B6803F00703FB60FB68062B9B
:1040D00010D07B681B681A687B681B6842F001027D
:1040E0001A6007E07B681B681A687B681B6842F0EF
:1040F00001021A60002318461437BD4680BC704781
:10410000002C0140000400400008004080B582B04F
:1041100000AF78607B681B681B6903F00203022B09
:1041200022D17B681B68DB6803F00203022B1BD1E2
:104130007B681B686FF002021A617B6801221A77A4
:104140007B681B689B6903F00303002B03D078682E
:1041500000F0B4F905E0786800F0A7F9786800F09D
:10416000B6F97B6800221A777B681B681B6903F02D
:104170000403042B22D17B681B68DB6803F0040373
:10418000042B1BD17B681B686FF004021A617B68EB
:1041900002221A777B681B689B6903F44073002B2B
:1041A00003D0786800F08AF905E0786800F07DF9BE
:1041B000786800F08CF97B6800221A777B681B68AE
:1041C0001B6903F00803082B22D17B681B68DB689E
:1041D00003F00803082B1BD17B681B686FF00802F3
:1041E0001A617B6804221A777B681B68DB6903F01D
:1041F0000303002B03D0786800F060F905E07868CD
:1042000000F053F9786800F062F97B6800221A77B1
:104210007B681B681B6903F01003102B22D17B689D
:104220001B68DB6803F01003102B1BD17B681B6835
:104230006FF010021A617B6808221A777B681B688E
:10424000DB6903F44073002B03D0786800F036F983
:1042500005E0786800F029F9786800F038F97B68A3
:1042600000221A777B681B681B6903F00103012B8E
:104270000ED17B681B68DB6803F00103012B07D1BB
:104280007B681B686FF001021A617868FCF742FFD7
:104290007B681B681B6903F08003802B0ED17B6851
:1042A0001B68DB6803F08003802B07D17B681B68E9
:1042B0006FF080021A61786800F07BFA7B681B68F7
:1042C0001B6903F04003402B0ED17B681B68DB6841
:1042D00003F04003402B07D17B681B686FF040025E
:1042E0001A61786800F0FCF87B681B681B6903F0B2
:1042F0002003202B0ED17B681B68DB6803F02003B2
:10430000202B07D17B681B686FF020021A61786848
:1043100000F046FA00BF0837BD4680BD80B584B0C6
:1043200000AF786039600023FB737B6893F83C3002
:10433000012B01D10223B4E07B68012283F83C20E9
:104340007B68022283F83D207B681B689B68BB600A
:10435000BB6823F07703BB60BB6823F47F43BB607B
:104360007B681B68BA689A603B681B68B3F5005F9E
:104370003ED0B3F5005F00F28780B3F5805F00F0B8
:104380008680B3F5805F7FD8702B1AD0702B7BD8D6
:10439000602B50D0602B77D8502B3CD0502B73D84B
:1043A000402B58D0402B6FD8302B64D0302B6BD89B
:1043B000202B60D0202B67D8002B5CD0102B5AD03C
:1043C00062E07B6818683B6899683B685A683B689C
:1043D000DB6800F068F97B681B689B68BB60BB68A2
:1043E00043F07703BB607B681B68BA689A604FE054
:1043F0007B6818683B6899683B685A683B68DB686B
:1044000000F051F97B681B689A687B681B6842F46E
:1044100080429A603CE07B6818683B6859683B685A
:10442000DB681A4600F0C8F87B681B685021184604
:1044300000F01FF92CE07B6818683B6859683B68FE
:10444000DB681A4600F0E6F87B681B6860211846B6
:1044500000F00FF91CE07B6818683B6859683B68FE
:10446000DB681A4600F0A8F87B681B6840211846F4
:1044700000F0FFF80CE07B681A683B681B6819467F
:10448000104600F0F6F803E00123FB7300E000BFE4
:104490007B68012283F83D207B68002283F83C2062
:1044A000FB7B18461037BD4680BD80B483B000AF9B
:1044B000786000BF0C37BD4680BC704780B483B0C5
:1044C00000AF786000BF0C37BD4680BC704780B439
:1044D00083B000AF786000BF0C37BD4680BC70472A
:1044E00080B483B000AF786000BF0C37BD4680BC9D
:1044F0007047000080B485B000AF786039607B6899
:104500001B68FB607B68294A93420BD07B68B3F140
:10451000804F07D07B68264A934203D07B68254AA8
:10452000934208D1FB6823F07003FB603B685B6833
:10453000FA681343FB607B681C4A93420BD07B688C
:10454000B3F1804F07D07B68194A934203D07B6850
:10455000184A934208D1FB6823F44073FB603B6820
:10456000DB68FA681343FB60FB6823F080023B685A
:104570005B691343FB607B68FA681A603B689A6862
:104580007B68DA623B681A687B689A627B68074AD4
:10459000934203D13B681A697B681A637B680122E6
:1045A0005A6100BF1437BD4680BC7047002C0140E3
:1045B000000400400008004080B487B000AFF860FD
:1045C000B9607A60FB681B6A7B61FB681B6A23F039
:1045D0000102FB681A62FB689B693B613B6923F03F
:1045E000F0033B617B681B013A6913433B617B69C4
:1045F00023F00A037B617A69BB6813437B61FB6824
:104600003A699A61FB687A691A6200BF1C37BD4635
:1046100080BC704780B487B000AFF860B9607A6042
:10462000FB681B6A7B61FB681B6A23F01002FB6856
:104630001A62FB689B693B613B6923F470433B61F1
:104640007B681B033A6913433B617B6923F0A0033A
:104650007B61BB681B017A6913437B61FB683A6924
:104660009A61FB687A691A6200BF1C37BD4680BC3C
:10467000704780B485B000AF786039607B689B6814
:10468000FB60FB6823F07003FB603A68FB68134330
:1046900043F00703FB607B68FA689A6000BF143739
:1046A000BD4680BC704780B487B000AFF860B96089
:1046B0007A603B60FB689B687B617B6923F47F4386
:1046C0007B613B681A027B681A43BB6813437A69B3
:1046D00013437B61FB687A699A6000BF1C37BD4653
:1046E00080BC704780B485B000AF786039607B686B
:1046F00093F83C30012B01D1022346E07B68012274
:1047000083F83C207B68022283F83D207B681B688D
:104710005B68FB607B681B689B68BB60FB6823F081
:104720007003FB603B681B68FA681343FB607B689F
:104730001B68FA685A607B681B68164A93420ED061
:104740007B681B68B3F1804F09D07B681B68124AF5
:10475000934204D07B681B68104A93420CD1BB681B
:1047600023F08003BB603B685B68BA681343BB609F
:104770007B681B68BA689A607B68012283F83D20D9
:104780007B68002283F83C20002318461437BD467E
:1047900080BC7047002C014000040040000800402D
:1047A00080B483B000AF786000BF0C37BD4680BCDA
:1047B000704780B483B000AF786000BF0C37BD464F
:1047C00080BC704780B582B000AF78607B68002BFA
:1047D00001D1012342E07B6893F84130DBB2002B2A
:1047E00006D17B68002283F840207868FDF7C0FA84
:1047F0007B68242283F841207B681B68DA687B6829
:104800001B6822F40052DA60786800F057FE7B687B
:104810001B681A697B681B6822F490421A617B68E6
:104820001B685A697B681B6822F02A025A617B6800
:104830001B68DA687B681B6842F40052DA607B68A8
:1048400000225A647B68202283F841207B68202262
:1048500083F842207B6800225A63002318460837F9
:10486000BD4680BD80B58AB002AFF860B9603B60DC
:104870001346FB8000237B61FB6893F84130DBB279
:10488000202B6DD1BB68002B02D0FB88002B01D1FF
:10489000012366E0FB6800225A64FB68212283F84A
:1048A0004120FDF7C9FC7861FB68FA889A84FB68AF
:1048B000FA88DA84FB689B68B3F5805F08D1FB68EF
:1048C0001B69002B04D10023FB61BB68BB6103E0C3
:1048D000BB68FB610023BB612AE03B6800937B69F6
:1048E00000228021F86800F0A6FB0346002B01D0CF
:1048F000032336E0FB69002B0BD1BB691B881A46EA
:10490000FB681B68C2F308025A60BB690233BB61D3
:1049100007E0FB691A78FB681B685A60FB69013382
:10492000FB61FB68DB8C9BB2013B9AB2FB68DA84CB
:10493000FB68DB8C9BB2002BCFD13B6800937B697B
:1049400000224021F86800F076FB0346002B01D0DE
:10495000032306E0FB68202283F84120002300E0C7
:10496000022318462037BD4680BD80B58AB002AF0D
:10497000F860B9603B601346FB8000237B61FB68F5
:1049800093F84230DBB2202B7CD1BB68002B02D0E5
:10499000FB88002B01D1012375E0FB6800225A64DB
:1049A000FB68222283F84220FB6800221A63FDF78D
:1049B00043FC7861FB68FA889A85FB68FA88DA8597
:1049C000FB689B68B3F5805F08D1FB681B69002B0F
:1049D00004D10023FB61BB68BB6103E0BB68FB61E2
:1049E0000023BB6143E03B6800937B6900222021E8
:1049F000F86800F020FB0346002B01D0032342E0BF
:104A0000FB69002B0CD1FB681B685B689BB2C3F38E
:104A100008039AB2BB691A80BB690233BB611FE00D
:104A2000FB689B68B3F5805F07D0FB689B68002B31
:104A30000AD1FB681B69002B06D1FB681B685B6809
:104A4000DAB2FB691A7008E0FB681B685B68DBB2CE
:104A500003F07F03DAB2FB691A70FB690133FB6173
:104A6000FB68DB8D9BB2013B9AB2FB68DA85FB6881
:104A7000DB8D9BB2002BB6D1FB68202283F842204D
:104A8000002300E0022318462037BD4680BD80B5D4
:104A900084B000AFF860B9601346FB80FB6893F800
:104AA0004230DBB2202B12D1BB68002B02D0FB8836
:104AB000002B01D101230BE0FB6800221A63FB8865
:104AC0001A46B968F86800F024FB034600E00223A8
:104AD00018461037BD4680BD80B5BAB000AF7860CB
:104AE0007B681B681B68C7F8E4307B681B68DB6861
:104AF000C7F8E0307B681B685B69C7F8DC300023CF
:104B0000C7F8D8300023C7F8D430D7F8E43003F022
:104B10000F03C7F8D830D7F8D830002B0FD1D7F80B
:104B2000E43003F02003002B09D0D7F8E03003F085
:104B30002003002B03D0786800F001FC5BE2D7F87B
:104B4000D830002B00F0DE80D7F8DC3003F0010312
:104B5000002B06D1D7F8E03003F49073002B00F05F
:104B6000D180D7F8E43003F00103002B0BD0D7F845
:104B7000E03003F48073002B05D07B685B6C43F05E
:104B800001027B685A64D7F8E43003F00403002B79
:104B90000BD0D7F8DC3003F00103002B05D07B6885
:104BA0005B6C43F002027B685A64D7F8E43003F090
:104BB0000203002B0BD0D7F8DC3003F00103002BED
:104BC00005D07B685B6C43F004027B685A64D7F8BD
:104BD000E43003F00803002B11D0D7F8E03003F0E5
:104BE0002003002B05D1D7F8DC3003F00103002BA4
:104BF00005D07B685B6C43F008027B685A647B6875
:104C00005B6C002B00F0F281D7F8E43003F0200356
:104C1000002B08D0D7F8E03003F02003002B02D09F
:104C2000786800F08CFB7B681B685B6903F04003CD
:104C3000002B14BF01230023DBB2C7F8D4307B68FC
:104C40005B6C03F00803002B03D1D7F8D430002BA2
:104C50004FD0786800F096FA7B681B685B6903F0B8
:104C60004003002B41D07B681B681433C7F89C308D
:104C7000D7F89C3053E8003FC7F89830D7F8983001
:104C800023F04003C7F8D0307B681B681433D7F893
:104C9000D020C7F8A820C7F8A430D7F8A410D7F8B8
:104CA000A82041E80023C7F8A030D7F8A030002B97
:104CB000D9D17B68DB6B002B13D07B68DB6B7E4A22
:104CC0005A637B68DB6B1846FEF75EF90346002BE0
:104CD00016D07B68DB6B5B6B7A68D26B10469847AB
:104CE0000EE0786800F093F90AE0786800F08FF938
:104CF00006E0786800F08BF97B6800225A6475E161
:104D000000BF73E17B681B6B012B40F04F81D7F82C
:104D1000E43003F01003002B00F04881D7F8E030B6
:104D200003F01003002B00F041810023BB607B687F
:104D30001B681B68BB607B681B685B68BB60BB68EB
:104D40007B681B685B6903F04003002B00F0B680B2
:104D50007B68DB6B1B685B68A7F8BE30B7F8BE30BA
:104D6000002B00F045817B689B8DB7F8BE209A42EE
:104D700080F03E817B68B7F8BE20DA857B68DB6B0C
:104D80009B69202B00F088807B681B680C33C7F878
:104D90008830D7F8883053E8003FC7F88430D7F818
:104DA000843023F48073C7F8B8307B681B680C33F9
:104DB000D7F8B820C7F89420C7F89030D7F89010EB
:104DC000D7F8942041E80023C7F88C30D7F88C300E
:104DD000002BD9D17B681B6814337B677B6F53E84A
:104DE000003F3B673B6F23F00103C7F8B4307B689B
:104DF0001B681433D7F8B420C7F88020FB67F96F1D
:104E0000D7F8802041E80023BB67BB6F002BE1D1BE
:104E10007B681B6814333B663B6E53E8003FFB65C1
:104E2000FB6D23F04003C7F8B0307B681B68143378
:104E3000D7F8B020FA66BB66B96EFA6E41E8002377
:104E40007B667B6E002BE3D17B68202283F84220B7
:104E50007B6800221A637B681B680C33FB64FB6C65
:104E600053E8003FBB64BB6C23F01003C7F8AC30C1
:104E70007B681B680C33D7F8AC20BA657B65796D0D
:104E8000BA6D41E800233B653B6D002BE3D17B68A5
:104E9000DB6B1846FEF73DF87B6802225A637B689D
:104EA0009A8D7B68DB8D9BB2D31A9BB219467868CA
:104EB00000F0B6F89CE000BF495200087B689A8D6C
:104EC0007B68DB8D9BB2D31AA7F8CE307B68DB8D75
:104ED0009BB2002B00F08E80B7F8CE30002B00F094
:104EE00089807B681B680C33BB63BB6B53E8003F56
:104EF0007B637B6B23F49073C7F8C8307B681B68B7
:104F00000C33D7F8C8207A643B64396C7A6C41E87A
:104F10000023FB63FB6B002BE3D17B681B6814331E
:104F20007B627B6A53E8003F3B623B6A23F00103EC
:104F3000C7F8C4307B681B681433D7F8C4203A63C1
:104F4000FB62F96A3A6B41E80023BB62BB6A002B43
:104F5000E3D17B68202283F842207B6800221A6319
:104F60007B681B680C333B613B6953E8003FFB6087
:104F7000FB6823F01003C7F8C0307B681B680C3354
:104F8000D7F8C020FA61BB61B969FA6941E800232A
:104F90007B617B69002BE3D17B6802225A63B7F8FF
:104FA000CE301946786800F03BF823E0D7F8E430BB
:104FB00003F08003002B09D0D7F8E03003F0800322
:104FC000002B03D0786800F053F914E0D7F8E430F0
:104FD00003F04003002B0ED0D7F8E03003F040037D
:104FE000002B08D0786800F092F904E000BF02E0DE
:104FF00000BF00E000BFE837BD4680BD80B483B08D
:1050000000AF786000BF0C37BD4680BC704780B4ED
:1050100083B000AF786000BF0C37BD4680BC7047DE
:1050200080B483B000AF78600B467B8000BF0C3744
:10503000BD4680BC704780B590B000AFF860B960E5
:105040003B601346FB7150E0BB6CB3F1FF3F4CD0AB
:10505000BB6C002B07D0FDF7EFF802463B68D31A74
:10506000BA6C9A4241D2FB681B680C33BB62BB6AC4
:1050700053E8003F7B627B6A23F4D073FB63FB68D9
:105080001B680C33FA6B7A633B63396B7A6B41E8CC
:105090000023FB62FB6A002BE5D1FB681B6814331D
:1050A0007B617B6953E8003F3B613B6923F001036F
:1050B000BB63FB681B681433BA6B3A62FB61F96926
:1050C0003A6A41E80023BB61BB69002BE5D1FB686C
:1050D000202283F84120FB68202283F84220FB68CD
:1050E000002283F8402003230FE0FB681B681A6846
:1050F000BB681340BA689A420CBF01230023DBB29D
:105100001A46FB799A429FD0002318464037BD4685
:1051100080BD80B485B000AFF860B9601346FB80F5
:10512000FB68BA689A62FB68FA889A85FB68FA8815
:10513000DA85FB6800225A64FB68222283F8422049
:10514000FB681B69002B07D0FB681B68DA68FB68EB
:105150001B6842F48072DA60FB681B685A69FB685E
:105160001B6842F001025A61FB681B68DA68FB6841
:105170001B6842F02002DA60002318461437BD464F
:1051800080BC704780B495B000AF78607B681B68C6
:105190000C337B637B6B53E8003F3B633B6B23F437
:1051A0009073FB647B681B680C33FA6C3A64FB6396
:1051B000F96B3A6C41E80023BB63BB6B002BE5D174
:1051C0007B681B6814333B623B6A53E8003FFB611A
:1051D000FB6923F00103BB647B681B681433BA6C62
:1051E000FA62BB62B96AFA6A41E800237B627B6AB1
:1051F000002BE5D17B681B6B012B19D17B681B68E9
:105200000C33FB60FB6853E8003FBB60BB6823F0D6
:1052100010037B647B681B680C337A6CBA617B611A
:105220007969BA6941E800233B613B69002BE5D10C
:105230007B68202283F842207B6800221A6300BF2B
:105240005437BD4680BC704780B584B000AF7860ED
:105250007B685B6AFB60FB680022DA85FB680022E2
:10526000DA84F868FFF7D3FE00BF1037BD4680BD73
:1052700080B485B000AF78607B6893F84130DBB2D2
:10528000212B3ED17B689B68B3F5805F14D17B688E
:105290001B69002B10D17B681B6AFB60FB681B88B5
:1052A0001A467B681B68C2F308025A607B681B6A57
:1052B0009A1C7B681A6208E07B681B6A591C7A6832
:1052C00011621A787B681B685A607B68DB8C9BB222
:1052D000013B9BB27A681946D184002B0FD17B68C1
:1052E0001B68DA687B681B6822F08002DA607B68E2
:1052F0001B68DA687B681B6842F04002DA600023B2
:1053000000E0022318461437BD4680BC704780B5C4
:1053100082B000AF78607B681B68DA687B681B68C6
:1053200022F04002DA607B68202283F8412078680E
:10533000FFF764FE002318460837BD4680BD80B5E0
:105340008CB000AF78607B6893F84230DBB2222BE0
:1053500040F0AE807B689B68B3F5805F17D17B68B7
:105360001B69002B13D10023FB627B689B6ABB6225
:105370007B681B685B689BB2C3F308039AB2BB6A85
:105380001A807B689B6A9A1C7B689A6226E07B681D
:105390009B6AFB620023BB627B689B68B3F5805FFE
:1053A00007D07B689B68002B0AD17B681B69002BA8
:1053B00006D17B681B685B68DAB2FB6A1A7008E08A
:1053C0007B681B685B68DBB203F07F03DAB2FB6AC1
:1053D0001A707B689B6A5A1C7B689A627B68DB8DBB
:1053E0009BB2013B9BB27A681946D185002B5DD1F7
:1053F0007B681B68DA687B681B6822F02002DA6031
:105400007B681B68DA687B681B6822F48072DA604C
:105410007B681B685A697B681B6822F001025A612D
:105420007B68202283F842207B6800225A637B68D5
:105430001B6B012B35D17B6800221A637B681B68CC
:105440000C337B617B6953E8003F3B613B6923F090
:1054500010037B627B681B680C337A6A3A62FB61DB
:10546000F9693A6A41E80023BB61BB69002BE5D1C9
:105470007B681B681B6803F01003102B0AD1002304
:10548000FB607B681B681B68FB607B681B685B6854
:10549000FB60FB687B689B8D19467868FFF7C0FD51
:1054A00002E07868FBF7D0FE002302E0002300E072
:1054B000022318463037BD4680BD000080B584B059
:1054C00000AF78607B681B681B6923F440517B68E0
:1054D000DA687B681B680A431A617B689A687B6894
:1054E0001B691A437B685B691343BB607B681B685D
:1054F000DB6823F4B05323F00C037A681268B968B0
:105500000B43D3607B681B685B6923F440717B6845
:105510009A697B681B680A435A617B681B682C4A3E
:10552000934203D1FEF7B2FBF86002E0FEF79AFB6C
:10553000F860FA6813469B0013449A001A447B688B
:105540005B689B00B2FBF3F3224AA2FB03235B09D7
:105550001901FA6813469B0013449A001A447B68A9
:105560005B689B00B2FBF3F21A4BA3FB02035B09DF
:10557000642000FB03F3D31A1B013233154AA2FB4C
:1055800003235B0903F0F0031944FA6813469B00F8
:1055900013449A001A447B685B689B00B2FBF3F2E9
:1055A0000C4BA3FB02035B09642000FB03F3D31A3B
:1055B0001B013233074AA2FB03235B0903F00F02EE
:1055C0007B681B680A449A6000BF1037BD4680BDE7
:1055D000003801401F85EB5180B584B000AF786082
:1055E0007868FAF7BFFD0346BB730023FB7307E03F
:1055F000FB7B7A68134400221A70FB7B0133FB7338
:10560000FA7BBB7B9A42F3D300BF00BF1037BD4685
:1056100080BD80B500AFFDF72FFD00BF80BD00004D
:1056200080B483B000AF786000BF164BDB6803F036
:105630000103002BF9D1134B1B69124A43F00203FB
:105640001361104A7B6853610E4B1B690D4A43F08E
:105650004003136100BF0B4BDB6803F00103002B19
:10566000F9D1084B1B69074A23F001031361054B6D
:105670001B69044A23F00203136100BF0C37BD46C7
:1056800080BC70470020024080B485B000AF7860D5
:105690007B68FB60FB681B8818461437BD4680BCDE
:1056A0007047000080B584B000AF78603960FFF7C4
:1056B000B0FF234B1B69224A43F00103136100230F
:1056C000BB603868FAF74EFD0346DAB21D4B1A701C
:1056D0000023FB6016E000BF194BDB6803F00103F9
:1056E000002BF9D1FB683A6813441B78BB60FB6858
:1056F0005B001A467B681344BA6892B21A80FB6852
:105700000133FB600F4B1B781A46FB689342E2DBC8
:1057100000BF0B4BDB6803F00103002BF9D1084BF2
:105720001B69074A23F001031361054B1B69044AF7
:1057300043F08003136100BF1037BD4680BD00BF3A
:10574000002002405404002090B587B000AFF860FC
:10575000B9607A6000237B61F868FFF73DFF7B68E2
:1057600002331846FFF790FF0346DBB2FF2B07D149
:105770007868FFF789FF0346DBB2303B7B6115E0B9
:105780007868FFF781FF0346DBB2A3F130021346CE
:105790009B0013445B001C467B6802331846FFF7EE
:1057A00073FF0346DBB22344303B7B6100233B6144
:1057B00011E03B695B001A46BB6813441846FFF7CB
:1057C00063FF034619463B69FA681344CAB21A706C
:1057D0003B6901333B613A697B699A42E9DB00BF6F
:1057E00000BF1C37BD4690BD80B586B000AFF860E5
:1057F000B9607A60FFF70DFFB868FFF711FFF9682D
:10580000B868FFF74FFF6420FCF720FD00233B61E1
:1058100000233B750B4B1B781A4607F110030A490E
:10582000184600F043FEFFF7F4FE7868FFF7F8FE35
:1058300007F1100319467868FFF734FF00BF1837E7
:10584000BD4680BD5404002094A00008002101F052
:1058500087BC0A22002101F067BD0000014B1868D7
:10586000704700BF1C00002008B5074B044613B169
:105870000021AFF30080054B1868836A03B1984795
:105880002046FCF7ACFB00BF00000000D8A00008D9
:1058900070B500260C4D0D4C641BA410A64209D116
:1058A00004F066FB00260A4D0A4C641BA410A642B5
:1058B00005D170BD55F8043B98470136EEE755F821
:1058C000043B98470136F2E7D8A50008D8A50008A0
:1058D000D8A50008DCA50008024B0146186800F0B6
:1058E00073B800BF1C00002003460244934200D15D
:1058F000704703F8011BF9E738B50546002940D089
:1059000051F8043C0C1F002BB8BFE41803F034FA24
:105910001C4A136833B9636014602846BDE83840F8
:1059200003F030BAA34208D9206821188B4201BF86
:1059300019685B6809182160EDE71A465B680BB1CE
:10594000A342FAD911685018A0420BD12068014433
:10595000501883421160E0D118685B6801441160FF
:105960005360DAE702D90C232B60D6E720682118B0
:105970008B4201BF19685B6809182160636054603D
:10598000CBE738BD5804002070B50E4E0C46316888
:10599000054611B900F07AFD30602146284600F036
:1059A00075FD431C0AD0C41C24F00304A04207D098
:1059B000211A284600F06AFD013001D14FF0FF3472
:1059C000204670BD5C0400202DE9F041CD1C25F07F
:1059D000030508350C2D38BF0C25002D074601DBCB
:1059E000A94205D90C2300263B603046BDE8F08172
:1059F0002E4E03F0C1F933681C4634BB29463846A5
:105A0000FFF7C2FF431C04464DD134682646002EE2
:105A100040D123683146384604EB030800F036FDD8
:105A200080453AD1216803356D1A25F00305083504
:105A30000C2D38BF0C2538462946FFF7A5FF01304D
:105A40002BD023682B4423600EE02268521B1ED407
:105A50000B2A16D96119A342256018BF59606368E3
:105A600008BF316062514B60384604F10B0603F009
:105A700089F926F00706231DF21AB6D09B1BA35006
:105A8000B3E76268A3420CBF32605A60ECE723467A
:105A90006468B2E734467668B9E70C2338463B6061
:105AA00003F070F9A1E72560DEE700BF580400208D
:105AB000002B2DE9F0471F46BBBF03F100431F46F3
:105AC00000232D2388B01446129A109D1370149B46
:105AD000DDF84CA023F02008B8F1460F05D0B8F14E
